:020000040800F2
:10000000F0120020E1010008E9010008EB010008FE
:10001000ED010008EF010008F101000800000000F8
:10002000000000000000000000000000F3010008D4
:10003000F501000800000000F7010008572B000838
:10004000FB010008FB010008FB010008FB010008A0
:10005000FB010008FB010008FB010008FB01000890
:10006000D90C0008FB010008FB010008FB01000897
:10007000FB010008FB010008FB010008FB01000870
:10008000FB010008FB010008FB010008FB01000860
:10009000E7750008FB010008FB010008FB010008F0
:1000A000FB010008FB010008FB010008FB01000840
:1000B000FB010008FB010008FB010008FB01000830
:1000C000FB010008FB010008FB010008FB01000820
:1000D000FB0100086F180008FB010008FB01000885
:1000E000570C0008FB010008EF75000800F002F84B
:1000F00000F05EF80AA090E8000C82448344AAF164
:100100000107DA4501D100F053F8AFF2090EBAE861
:100110000F0013F0010F18BFFB1A43F0010318473B
:100120008C9B0000AC9B00000A444FF0000C10F8C0
:10013000013B13F0070408BF10F8014B1D1108BF65
:1001400010F8015B641E05D010F8016B641E01F805
:10015000016BF9D113F0080F1EBF10F8014BAD1C55
:100160000C1B09D16D1E58BF01F801CBFAD505E073
:1001700014F8016B01F8016B6D1EF9D59142D6D3CD
:10018000704700000023002400250026103A28BFF5
:1001900078C1FBD8520728BF30C148BF0B607047F9
:1001A0001FB59DE8030008F09FFF1FBD10B510BDEF
:1001B00008F0F6FF1146FFF7F3FF01F00BFA09F024
:1001C00014F803B4FFF7F2FF03BC09F045F8000090
:1001D000EFF3108072B6704780F31088704700000C
:1001E0000948804709480047FEE7FEE7FEE7FEE7CB
:1001F000FEE7FEE7FEE7FEE7FEE7FEE70448054907
:10020000054A064B70470000FF020008ED00000899
:10021000F00C0020F0120020F00E0020F00E002064
:100220000CB50020019000906D48006840F48030CB
:100230006B49086000BF6A48006800F40030009015
:100240000198401C0190009818B90198B0F5A06F72
:10025000F1D16348006800F4003010B10120009033
:1002600001E0002000900098012843D15D4800681B
:1002700040F010005B4908600846006820F0030069
:1002800008600846006840F0020008605448406872
:10029000534948600846406848600846406840F452
:1002A000806048600846406820F47C10486008463A
:1002B000406840F4E81048600846006840F08070EC
:1002C000086000BF4648006800F000700028F9D0C0
:1002D0004348406820F003004149486008464068B0
:1002E00040F00200486000BF3D48406800F00C004C
:1002F0000828F9D10CBD10B5FFF792FF10BD10B55D
:100300003748006840F001003549086008464068F9
:10031000354908403249486008460068334908407A
:100320002F4908600846006820F4802008600846CD
:10033000406820F4FE0048604FF41F008860FFF71B
:10034000DAFF4FF000602A4908602A48091D08605A
:1003500010BD10B5002100200022214B5B6803F086
:100360000C0121B1042906D0082928D107E0224B2D
:10037000224C236027E0204B204C236023E0184BC5
:100380005B6803F47010164B5B6803F48032022341
:1003900003EB904022B91A4B4343184C23600DE005
:1003A0000F4B5B6803F4003323B1154B4343134CED
:1003B000236003E0104B4343104C236003E00E4BDB
:1003C0000E4C236000BF00BF054B5B68C3F30313F3
:1003D0000C4CE15C094B1B68CB40084C236010BD02
:1003E00000100240002002400000FFF8FFFFF6FE70
:1003F00008ED00E00003FA0500127A00000000207A
:1004000000093D000400002038B500208DF80300ED
:1004100000240BE0FD4830F81400ADF80000FC4962
:1004200051F82400694605F047F8641C042CF1D308
:1004300038BD10B590B00BA804F06AF9684604F016
:1004400005FC4FF4004005F0BDFA0121084605F017
:1004500048FB0121480205F051FBEE4804F036FB51
:10046000ED480090ED48019000200290402003905C
:1004700000200490802005904000069080000790A6
:10048000202008900002099000200A906946E14867
:1004900004F0BEFB0121DF4804F0E5FB00200B90D7
:1004A00001208DF830008DF831004FF460200D9060
:1004B00000200E9004208DF83C000BA9D6484C3843
:1004C00004F003F9002409E0601CC2B2D448015DC5
:1004D0000323D1484C3804F090F9641C042CF3D366
:1004E0000121CD484C3804F027F90121CA484C3885
:1004F00004F017F9C8484C3804F035F900BFC64875
:100500004C3804F035F90028F9D1C3484C3804F0D0
:1005100039F900BFC0484C3804F039F90028F9D146
:100520000121BD484C3804F03CF910B010BD10B5A5
:10053000FFF76AFFFFF77DFF0E21BA4808F06CFD58
:10054000B9480021016010BD10B5014600220846DF
:10055000CC1701EB9474A410A1EB8404E1B20B4618
:1005600004E0AE4830F8130002441B1D402BF8D3C2
:10057000120990B210BD2DE9F0410446AB48007855
:1005800000287AD0A71C00260020207000253FE01C
:10059000E8B2FFF7D9FF0646B6F5186F18DBB6F5D7
:1005A000686F03DB7F2027F8150006E0A6F51860CA
:1005B0000A2190FBF1F027F8150025B9207840F0CA
:1005C0000200207023E0207840F0040020701EE03C
:1005D000B6F5D06F18DCB6F5C07F03DC7F2027F8B6
:1005E000150006E0C6F5D0600A2190FBF1F027F86F
:1005F000150025B9207840F00100207007E0207830
:1006000040F00800207002E0002027F815006D1C63
:10061000022DBDD3608840106080A0884010A0806B
:10062000207850B9607830B10E21204608F0F4FCF3
:100630000120BDE8F0810020FBE760782178884246
:1006400017D12178002001F0030232B1628823899A
:100650009A4202D001206288228101F00C0232B15C
:10066000A28863899A4202D00120A2886281E0E7D1
:1006700003E0207860700120DBE7A71C0026002043
:100680002070002552E0E8B2FFF75EFF064640F218
:100690003370864221DC40F2B450864203DC7F2076
:1006A00027F8150007E040F23370801B032190FB10
:1006B000F1F027F8150025B9207840F001002070EE
:1006C00033E0012D04D1207840F0080020702CE0A8
:1006D000207840F02000207027E040F6A9008642F4
:1006E00020DB40F62820864203DB7F2027F8150018
:1006F00006E0A6F6A900032190FBF1F027F815000B
:1007000025B9207840F0020020700EE0012D04D1C0
:10071000207840F00400207007E0207840F01000BE
:10072000207002E0002027F815006D1C032DAAD3CD
:10073000608840106080A0884010A080E088C010D1
:10074000E080207848B9607828B10E21204608F072
:1007500063FC01206DE700206BE760782178884218
:1007600020D12178002001F0030232B16288238970
:100770009A4202D001206288228101F00C0232B13B
:10078000A28863899A4202D00120A288628101F086
:10079000300232B1E288A3899A4202D00120E28875
:1007A000A28146E720786070012042E71E48007869
:1007B00070472DE9F04105460320FFF7C5FE0446CA
:1007C0006F781B480088844201DB00240FE0194841
:1007D0000088844207DC1848008800EB0010C0EB5A
:1007E000C00084B203E012480088001B84B26E8807
:1007F000A64224DD301B81B20F4A108800EBD07274
:10080000B1EB620F1ADA0020BDE8F081A492000873
:100810002C000020080002404C2401403C02002033
:10082000AC920008BC02002022000020150000202D
:100830001A00002018000020160000200CE0A01B69
:1008400081B2CF4A108800EBD072B1EB620F02DAAE
:100850000020BDE8F08100BF2646C948008894FB0F
:10086000F0F084B2A74208D0E0B268702870C448A3
:100870000088604368800120EBE70020E9E700B5CD
:100880008BB0C048FFF777FE58B102208DF8040006
:100890000E22BC4903A808F040FB01A800F078FE36
:1008A00000BF0BB000BD00B58BB0B748FFF781FFAC
:1008B00048B100208DF80400B3480078039001A8E7
:1008C00000F066FE00BF0BB000BD2DE9F04105460B
:1008D0000420FFF739FE04466F780026AB480088F5
:1008E000844201DA002403E0A8480088201A84B278
:1008F000A7480088A5490988401AA04205DAA448FB
:100900000088A2490988401A84B26E88A6420DDD8B
:10091000301B81B29F4A1088C21700EB9272B1EB74
:10092000A20F02DA0020BDE8F0810CE0A01B81B22A
:10093000984A1088C21700EB9272B1EBA20F01DA4D
:100940000020F0E700BF26469248008894FBF0F0B4
:1009500084B2642C00DD6424BC4205D0E0B228706F
:1009600068706E800120DEE70020DCE78A4840786E
:10097000704700B58BB08848FFF7A7FF48B1032048
:100980008DF8040084480078039001A800F000FE70
:1009900000BF0BB000BD70B502460B46002400211D
:1009A00000259A4201DD002070BD981A84B2F02C17
:1009B00001DA0020F8E7782094FBF0F081B2C1EB77
:1009C0000110A4EBC00085B23B2D06DA481E81B2AF
:1009D000C1EB0110A4EBC00085B2284605EBD07630
:1009E000C6F34F05501982B2C1EB011002EBC000F3
:1009F000401E83B2624801806848028068480380D4
:100A00000120D1E72DE9F05F4FF00008C146C24652
:100A1000002000F024FD01220221042000F0B2FC9D
:100A200000BF00F0A8FD054605B903E0284600F028
:100A3000A8FDF6E700BF5B48076863E05948016816
:100A4000384602F07FF842F21071884204D9012042
:100A500000F005FDBDE8F09F00F08DFD054605B9ED
:100A600050E02E681EB9284600F08BFD4AE0307831
:100A7000012803D0284600F084FD43E006F1080475
:100A8000B8F1000F1CD12078402837D145480768BD
:100A9000A078022805D101220021062000F072FC76
:100AA0002CE0A078012829D100221146062000F070
:100AB00069FC0320FFF748FD82464FF001081DE066
:100AC000B8F1010F1AD120783F2817D135480768AF
:100AD000A078022805D101223F21002000F052FC1D
:100AE0000CE0A078012809D100223F21104600F037
:100AF00049FC0320FFF728FD814604E0284600F06A
:100B000040FD00BF9AE700BF51464846FFF743FF4C
:100B1000B0B102F03EFE98B100220221042000F0A4
:100B200031FC2048076800BF1E480168384602F0C3
:100B300009F8B0F57A7FF7D3012000F090FC89E73F
:100B400001244FF0000B12E084F001042246022140
:100B5000042000F017FC1348076800BF1148016823
:100B6000384601F0EFFF6428F8D30BF1010BBBF11D
:100B70000A0FE9D3012000F072FC00BF6AE7000011
:100B800016000020BC0200202200002020000020CF
:100B90001E0000201C00002026000020180000205D
:100BA0001A000020A40000201FB548208DF80F0077
:100BB00002208DF80E008003ADF80C0003A9AA48AE
:100BC00004F07AFC4FF48040ADF80C0003A9A7486C
:100BD00004F072FC00208DF808000C208DF809004C
:100BE00001208DF80A000F21002004F07BFD4FF456
:100BF0000040019001A804F0A1F801208DF8010047
:100C000000208DF8020001208DF8030028208DF8C7
:100C10000000684603F0C9FC0420ADF80C0003A9ED
:100C2000934804F049FC4FF40040ADF80C0003A9D0
:100C30008E4804F041FC0221032004F053FD0420FF
:100C4000019001A804F07AF808208DF800006846A9
:100C500003F0ABFC1FBD70B54FF4004004F0D4F8B6
:100C6000002838D0002001E000BF401CA028FBDB9A
:100C70007E48806885B27C480830006886B206F4F9
:100C8000004605F4804526B90DB9012405E000248D
:100C900003E00DB9002400E001247648448024B12B
:100CA0008088401C7349888004E072488088401E18
:100CB000704988806F488088402807DD1CB100207B
:100CC0006C49888002E040206A4988804FF40040E7
:100CD00004F0ABF800BF70BD70B5042004F094F8C8
:100CE000002839D0002001E000BF401CA028FBDB19
:100CF0005E48806885B25E480830006886B206F0BB
:100D0000040605F4004526B90DB9012405E00024C8
:100D100003E00DB9002400E00124564844812CB1C1
:100D20008089401C81B25348818105E05148808907
:100D3000401E81B24F4881814E488089402807DD9E
:100D40001CB100214B48818102E04021494881814A
:100D5000042004F06AF800BF70BD10B5FFF724FF4F
:100D600000240BE0434921F83440002001EBC4018A
:100D70008880404901EBC401C880641C022CF1D377
:100D800010BD01468888CA88904203D08888C880F0
:100D9000012070470020FCE770B504460026022CB5
:100DA00002DD4FF6FF7070BD324800EBC400808852
:100DB000401C85B2FFF70CFA06462F4830F81400A5
:100DC000A84200DA00252B4800EBC400C580294862
:100DD00000EBC40085803046FFF7FEF92846E2E7C5
:100DE0000146244800EBC100C088704770B5044636
:100DF0000D460026022C02DD4FF6FF7070BD1E4826
:100E000030F81400A84202DA1B4830F81450FFF7FB
:100E1000DFF90646174800EBC400C580154800EB13
:100E2000C40085803046FFF7D7F92846E6E710B5BD
:100E30008AB0002414E00F4901EBC400FFF7A1FFC2
:100E400068B104208DF800000A4800EBC400016876
:100E5000029140680390684600F09AFB00BF641C52
:100E6000022CE8D30AB010BD000801400010014078
:100E700000140140CA020020B0920008F0B50246FA
:100E800092F8504004F00706002009E0FB4C215C7A
:100E9000FB4C34F81140FB4D55F821502C61401C9F
:100EA0000828F3D300233AE0F44FF95CF44F37F805
:100EB0001170DFF8D0C35CF821C0CCF814700020AA
:100EC00000E0401C2828FCD300BF00BF00BF002466
:100ED000002013E0EC4F57F82070BF68DFF8ACC378
:100EE0003CF810C007EA0C050DB1012700E000270F
:100EF0003D4605FA00F72743BCB2401C0828E9D359
:100F0000DF4F37F81170DFF87CC35CF821C0CCF8F4
:100F1000107002F1100707EBC607FC545B1C082B8E
:100F2000C2D3146D641C1465F0BDF0B503460C46C5
:100F3000FF260025002114E000220BE003EBC10096
:100F4000875C481C03EBC000805C874201D06D1CAD
:100F500002E0521C082AF1DB00BF082A00D10E462D
:100F6000491C0729E8DB052D01DD0020F0BD082E16
:100F700001DB0020FAE703EBC60007682760406842
:100F800060600120F2E770B502460D46002366E07E
:100F9000581CC4B25FE002EB8300407800F0F00020
:100FA00002EB8406767806F0F006B04251D10021BB
:100FB0000FE002EB8300407800F00F0002EB8106A7
:100FC000767806F00F06B04201D1012070BD481CB2
:100FD000C1B29942EDDB581CC1B20FE002EB8300B5
:100FE000407800F00F0002EB8106767806F00F06DD
:100FF000B04201D10120E9E7481CC1B2A942EDDBB2
:1010000000210FE002EB8400407800F00F0002EBBB
:101010008106767806F00F06B04201D10120D5E7AF
:10102000481CC1B2A142EDDB601CC1B20FE002EB73
:101030008400407800F00F0002EB8106767806F01D
:101040000F06B04201D10120C0E7481CC1B2A9423D
:10105000EDDB601CC4B2AC429DDB581CC3B2681E01
:10106000984295DC0020B1E72DE9F05F074697F83C
:10107000500000F0070007287ED1394607F1100024
:10108000FFF753FF8346BBF1000F02D10020BDE8FC
:10109000F09FB94607F1080A07F15408002400251B
:1010A0005DE00020002119F805201AF8053082EAD9
:1010B000030019F805201AF8053002EA030158B3B5
:1010C000002627E00122B240024012B3082C00DBC8
:1010D00048E0F02202EA051206F00F031A4308EB7B
:1010E00084035A706A4A02EBC502925D08F8242014
:1010F00019F805200123B3401A4022B1022208EB5F
:1011000084039A7003E0012208EB84039A70621C46
:10111000D4B2761C082ED5DB01B300261CE00122D8
:10112000B2400A40BAB1082C00DB1BE0F02202EA10
:10113000051206F00F031A4308EB84035A70544A51
:1011400002EBC502925D08F82420EE2208EB84032E
:101150009A70621CD4B2761C082EE0DB6D1C082D40
:101160009FDB00BFD9F80000CAF80000D9F80400DE
:10117000CAF80400042C00E00AE007DB214607F16E
:101180005400FFF700FF08B1002080E720467EE70B
:1011900000207CE738B503208DF8020010208DF880
:1011A0000300002412E0394830F81400ADF80000C4
:1011B000354951F82400694604F07EF9334830F887
:1011C0001400314951F824104861641C082CEAD3FA
:1011D00000BF28208DF8030000240BE02B4830F8D6
:1011E0001400ADF80000284951F82400694604F0C5
:1011F00063F9641C082CF1D300BF38BD38B5032057
:101200008DF8020010208DF8030000240BE0214827
:1012100030F81400ADF800001F4951F82400694669
:1012200004F04AF9641C082CF1D338BD38B503200A
:101230008DF8020010208DF8030000240BE0104808
:1012400030F81400ADF800000E4951F8240069464A
:1012500004F032F9641C082CF1D300240BE0084898
:1012600030F81400ADF80000064951F82400694632
:1012700004F022F9641C122CF1D338BD80930008CD
:101280005C93000814930008B4920008D4920008FC
:101290004100002004930008E4920008002007E0C9
:1012A000974931F81010974A52F820205161401C9C
:1012B0000828F5D37047002007E0934931F8101053
:1012C000924A52F820201161401C1228F5D3704731
:1012D000002007E08C4931F810108C4A52F8202089
:1012E0001161401C0828F5D3704710B5FFF7F0FFD7
:1012F000FFF7E1FF10BD2DE9F041054612216869B5
:10130000B0FBF1F201FB1206AF5DFFF7C7FFFFF77D
:10131000D2FF00240BE00120A040384030B17848D3
:1013200030F81400774951F824100861641C082C27
:10133000F1D3754830F81600744951F82610486109
:10134000701C6861BDE8F08110B5FFF723FFFFF75F
:1013500055FFFFF76BFFFFF7C8FF74216C4807F0DC
:101360007DFE18216B4807F079FE12216A4807F0CC
:1013700075FE1221694807F04FFE1221684807F0F8
:101380006DFE10BD30B50B4600F007001224B3FB14
:10139000F4F504FB15335F4CE1182AB10C780125F4
:1013A00085402C430C7004E00C7801258540AC434B
:1013B0000C7030BD10B5024602F007021220B1FBDE
:1013C000F0F400FB14115348435C01209040184096
:1013D00008B1012010BD0020FCE730B50B4600F03D
:1013E00007001224B3FBF4F504FB15334A4CE11853
:1013F0002AB10C78012585402C430C7004E00C7850
:1014000001258540AC430C7030BD10B545480168DE
:101410004548006801F096FBB0F5FA7F1ED900211F
:101420000FE03C4B58183C4B5A5C4AB13F4B1B7881
:101430001BB103781343037002E0037893430370F6
:10144000491C1229EDD3374B1B68374C2360374BAF
:101450001B7883F00103354C237000BF10BD70B5BD
:101460000446002504B1FF2512212B4807F0F6FDA4
:101470002A461221274807F0C7FD70BD10B5122279
:101480002549274807F08EFD12222249234807F0FC
:1014900044FD10BD10B5122221491F4807F082FDFE
:1014A00012221E491B4807F038FD10BD10B58AB046
:1014B0001C48007800F00100D0B90024FFF7EEFED0
:1014C0001348FFF7DBFC1248FFF7CEFD0446002C63
:1014D0000DDD019401208DF80000A2000C4954316B
:1014E00002A807F05FFD684600F052F800BF00BF99
:1014F000FFF78BFF0748FFF7FEFE0AB010BD0000A4
:1015000004930008E49200085C9300081493000818
:10151000DC02002050030020680300207A03002032
:101520008C030020A40000203C000020400000208C
:1015300010B5022308222449244801F0EDFC0024C0
:1015400016E0002004EB44011F4A02EBC1010872BF
:1015500004EB84001E4901EBC00004EB440142F897
:101560003100282004EB440102EBC1014860641CF7
:10157000082CE6D310BD10B50121144801F04FFD31
:1015800010BD10B504462146104801F07FFD10BD86
:1015900070B50446002504B970BD0C4801F0FCFC90
:1015A000054675B128222146286807F0B6FC0122BD
:1015B0002946064801F007FD18B12946034801F005
:1015C00065FD00BFE8E70000E0040020A005002062
:1015D000A00300200EB50027FFF7AAFF01F008F8CE
:1015E00001F0E6FA01F0EEFA02F079F800F051F9B4
:1015F000FFF7AAFE0020FFF732FFFEF798FFFFF784
:10160000ACFB02F0ABF901F0E3FA002005F0C4FFF7
:101610006948D0F8008000BF67480168404601F083
:1016200091FA6428F8D3012005F0B6FF05F057FFC2
:1016300005F012FF06F0A2FD0120FFF710FF5E4843
:10164000D0F8008000BF5C480168404601F07AFA9B
:1016500040F2DC518842F6D30020FFF700FF00F093
:10166000F1FF00BF002629E0761C5348D0F8008027
:1016700000BF51480168404601F064FA9628F8D34B
:10168000FFF779FF044604B918E025681DB9204624
:10169000FFF777FF12E0287801280BD195F8089022
:1016A000B9F10B0F05D12046FFF76BFFFFF7AAF941
:1016B00006E000BF2046FFF764FF00BF0A2ED3D329
:1016C00000BF0A2E00D311E00020FFF7C8FE3A4801
:1016D000D0F8008000BF38480168404601F032FA77
:1016E0006428F8D30120FFF7BAFE00BF00BF00272F
:1016F0002AE0002400253048D0F800806C46002005
:10170000206060602081AA2020700720A070C02087
:10171000E070204600F07DFD0821204600F0F1FD3C
:10172000002000F0CBF805461DB1284600F064F912
:101730000CE07F1C00BF20480168404601F002FA1F
:10174000B0F57A7FF7D300BF032FD2D300BF0020BC
:10175000FFF785FE00F04CFF00BFFFF70CFF0446CB
:1017600004B903E02046FFF70CFFF6E700BF21E0D5
:10177000002000F0A3F80446FFF7FDFE05462DB15A
:10178000284601F098F9284602F0E4FE3CB10B49E6
:10179000204600F0D2FD10B1204601F0A2F9284603
:1017A000FFF7EFFE204600F027F902F045FD02F0BA
:1017B00065FA00BFDCE70000A40000209494000854
:1017C00000B587B00121880304F098F903A805F05B
:1017D000B3F94FF41650039003A9A94805F043F953
:1017E0000121A74805F0CBF94FF40070ADF80800CF
:1017F00003208DF80A0018208DF80B0002A9A148DB
:1018000003F05AFE4FF48060ADF8080004208DF814
:101810000B0002A99B4803F04FFE25208DF8040021
:1018200004208DF8050000208DF8060001208DF8B9
:10183000070001A802F0B9FE012240F225519048AC
:1018400005F0A9F90121084604F04BF943F2900094
:101850008D4948648A48001DC86400208864086572
:1018600001228021864805F0BBF907B000BD38B5DC
:101870008348048804F0200050B18148001D00888E
:10188000C0B2009001226946804801F031FC00BFDF
:1018900038BD10B5002310227D497E4801F03CFB85
:1018A00080227D49794801F005FC4FF480627B4934
:1018B0007B4800F0FBF8FFF783FF10BD2DE9FF41E7
:1018C000054600BF00270020039003A96F4801F0E0
:1018D00057FC074607B927E023E0002600200290C6
:1018E0000024009002AB019039466D48039A00F045
:1018F000EFF8064606B915E0664801F04DFB0446D0
:1019000014B9304607F097FA26600298606001200B
:101910002072012221465F4801F055FB0020039010
:1019200000BFDAE700BF00BF00BF00BF00245D4872
:101930000078E8B15448006800F4005010B905B1CF
:1019400049E049E04E48008800F0400010B905B178
:1019500041E041E04FF480504B4948605248007AE2
:1019600018B15149086807F066FA00204D4908701F
:101970000021484801F053FB04465CB3606800282E
:1019800001DD206848B9207A20B1206810B12068B4
:1019900007F051FA05B11EE01EE03B48406C20F014
:1019A0000100394948646068886420680865084611
:1019B000406C40F00100486401203A490870182248
:1019C0002146394807F0EEFA2146324801F05EFB25
:1019D00005B100E000E0A9E700BF00BF002401213D
:1019E0002C4801F01CFB04461CB1204604B0BDE8A5
:1019F000F08100BF0020F9E710B5044644B1207A19
:101A000010B1206807F017FA2146224801F03EFB8A
:101A100010BD2DE9F04105460E4690461F460024B4
:101A200015B9601EBDE8F0811A4801F0B5FA044608
:101A300014B94FF0FF30F5E7256067602672002289
:101A40002146144801F0BFFA0020EBE710B5044628
:101A50001CB121460F4801F019FB10BD4FF4806006
:101A6000704710B5044604B910BD0020A0810C20B9
:101A700060812146024804F0F6FF00BFF4E7000051
:101A8000003801400008014000000240C807002063
:101A9000B40500203407002048070020E00700209C
:101AA000E00B002081000020F80B002070B50446F8
:101AB0000E4615460CB106B115B94FF0FF3070BD9A
:101AC0001821204607F0CAFA266065600020F6E774
:101AD0002DE9FF4F8DB0044690469A46DDF8689098
:101AE000002700200C9014B1BAF1000F03D14FF081
:101AF000FF300C9084E321696068401A404502D2AF
:101B00004FF0FF300C90B8F1000F2ED00E9818B99E
:101B10004FF0FF300C9073E3A06800EB080660689C
:101B2000B04214D2D4E90101451AA268216888188C
:101B30002A460E9907F0F1F9A8EB05020E9B5919F8
:101B4000206807F0EAF9A8EB0500A06009E0A268A8
:101B50002168881842460E9907F0DFF9A0684044D2
:101B6000A06020694044206100BF00BF00200B90AE
:101B7000002524E3E06828440A9061680A98B0FBD5
:101B8000F1F201FB12000A9021680A98085C0990A2
:101B90000998AA287DD10026002008902069401BC2
:101BA00007900798072806DB606928B1A08AC0F370
:101BB0000726207D089085E0E26850192168821C84
:101BC0006368B2FBF3FC03FB1C228A5C042A78D115
:101BD000C21C6368B2FBF3FC03FB1C228A5C002A74
:101BE0006FD1421D6368B2FBF3FC03FB1C228E5CC9
:101BF000821D6368B2FBF3FC03FB1C228A5C089223
:101C0000079A082A5DDBD4F80CC0AC44CDF818C0A4
:101C100005F1070CD4F80CB00CEB0B034FF0000CE3
:101C2000CDF814C0069A10E0D4F804C0B2FBFCFB57
:101C30000CFB1B2CD4F800B01BF80CC0DDF814B062
:101C40008CEA0B0CCDF814C0521C9A42ECD3D4F899
:101C500004C0B3FBFCFB0CFB1B3CD4F800B01BF82E
:101C60000CC0CDF810C0DDE904CBE3451BD005F175
:101C7000010CD4F810B0ABEB0C0CC4F810C005F19B
:101C8000010CD4F80CB0DC44C4F80CC0D4F80CC07F
:101C900000E03FE1D4F804B0BCFBFBFE0BFB1ECC24
:101CA000C4F80CC08FE2F6B2DDF820C00CF0FF0CD7
:101CB000CDF820C0DDF820C00CEB062CC4F814C011
:101CC00000BF00BFF6B20898C0B20890089800EBB9
:101CD000062608366068B6EB500F11D9681C2169DA
:101CE000081A2061681CE1680844E0606168E068E7
:101CF000B0FBF1F201FB1200E0600020606108E13E
:101D00000798864275DC082E75D100200690019652
:101D1000019807F061F807461FB94FF0FF300C90AB
:101D20006EE20597E06828440390701E2844E1683D
:101D3000084402900398049015E061680498B0FB91
:101D4000F1F201FB1200216811F800B0069880EA58
:101D50000B000690059880F800B00598401C05908F
:101D60000498401C0490029904988842E5D3616865
:101D70000298B0FBF1F201FB1200216811F800B0EB
:101D8000069858451FD101200B90059880F800B0A7
:101D9000216901982844081A2061E06841190198D6
:101DA0000844E0606168E068B0FBF1F201FB1200FA
:101DB000E0600198CAF80000B9F1000F18D00120C6
:101DC000C9F8000014E0384607F035F80027681C11
:101DD0002169081A2061681CE1680844E0606168B4
:101DE000E068B0FBF1F201FB1200E06000206061EE
:101DF0008FE07FE0FFE70596059806F0EDFF0746C8
:101E00001FB94FF0FF300C90FAE1E0682844616898
:101E1000B0FBF1F201FB120B7019E1680844616834
:101E2000B0FBF1F201FB120006900698584507D965
:101E3000206800EB0B013246384607F06EF811E0DF
:101E40006068A0EB0B000290206800EB0B013846A5
:101E5000029A07F062F8029BF21AF818216807F05C
:101E60005CF800BF00206061A6F10A0081B207F1B2
:101E7000080000F06DFF049000200390B819811E47
:101E8000022203A800F040FFBDF80C100498814224
:101E90001CD101200B90216905982844081A206163
:101EA000E068411905980844E0606168E068B0FBAB
:101EB000F1F201FB1200E0600598CAF80000B9F1E8
:101EC000000F16D00120C9F8000012E0384606F0D5
:101ED000B2FF0027681C2169081A2061681CE168AC
:101EE0000844E0606168E068B0FBF1F201FB1200B9
:101EF000E0600EE02069401B2061E0682844E0605B
:101F00006268E168B1FBF2F002FB1010E0600120B2
:101F10000B9058E10998FA2870D12069A0EB050BC5
:101F2000BBF1070F6BDB002008900720039003989C
:101F300006F052FF07461FB94FF0FF300C905FE1EB
:101F40003E46E06828440590A81DE16808440490D6
:101F5000059806900FE060680699B1FBF0F200FB6F
:101F600012102168085C07909DF81C0006F8010B10
:101F70000698401C0690049906988842EBD30220EC
:101F8000069009E00698385C9DF820100844C0B21D
:101F900008900698401C069006980628F2D36068C0
:101FA0000499B1FBF0F200FB12102168085C079065
:101FB0009DF820009DF81C10884221D101200B9033
:101FC0009DF81C003070206903992944401A206153
:101FD000E068284403990844E0606168E068B0FB69
:101FE000F1F201FB1200E0600398CAF80000B9F1B9
:101FF000000F18D00520C9F8000014E024E013E019
:10200000384606F018FF0027681C2169081A20616D
:10201000681CE1680844E0606168E068B0FBF1F2C8
:1020200001FB1200E0600EE02069401B2061E068C7
:102030002844E0606168E068B0FBF1F201FB120047
:10204000E06001200B90BEE0099800F0F0008028CD
:102050007BD12069401B08900898032876DBE06854
:1020600000EB050BD4E9031008440790002006900C
:102070000BF102060DE06068B6FBF0F100FB1160A9
:102080002168085C06900698FF2801D1079603E0B6
:10209000761C07988642EED300BF0698FF2856D1DB
:1020A0000798A0EB0B00401C102810D90027681CD3
:1020B0002169081A2061681CE1680844E0606168D1
:1020C000E068B0FBF1F201FB1200E06064E0079809
:1020D000A0EB0B00401C0490049806F07DFE074620
:1020E0001FB94FF0FF300C908AE0059701200B904C
:1020F0005E460CE06068B6FBF0F100FB1160216801
:10210000095C059801700598401C0590761C07989D
:102110008642EFD9216904982844081A2061E068B2
:10212000411904980844E0606168E068B0FBF1F28E
:1021300001FB1200E0600498CAF80000B9F1000F3A
:1021400002D00420C9F8000026E036E025E0079818
:10215000A0EB0B00102810D30027681C2169081A77
:102160002061681CE1680844E0606168E068B0FBD9
:10217000F1F201FB1200E0600EE02069401B2061DB
:10218000E0682844E0606168E068B0FBF1F201FBC0
:102190001200E06001200B900EE02069401B2061DE
:1021A000E0682844E0606168E068B0FBF1F201FBA0
:1021B0001200E06001200B9005E000BF6D1C20695B
:1021C000A8423FF6D7AC00BF2069A8420FD10B98B8
:1021D00068B900202061E0682844E0606168E06838
:1021E000B0FBF1F201FB1200E060002060610B988F
:1021F00000B103E0206900283FF7B8AC00BF00BF82
:102200001B9810B11B990C980860384611B0BDE8B6
:10221000F08F10B501460B78FE4C24680CB10922F2
:1022200000E00722012002E00C5C6340401C904269
:10223000FADB0B5410BD2DE9FF4381B08846DDF871
:1022400030900024B8F1000F03D1002005B0BDE8A4
:10225000F083DDE9030100FB01F707F110063046CA
:1022600006F0BAFD04460CB90020EFE731462046DF
:1022700006F0D2FEAA2020700420A0700020E0709A
:10228000A6F10800009002226946601D00F03CFDA6
:102290002046FFF7BEFF04F10805022201A92846E7
:1022A00000F032FD022203A9A81C00F02DFD02223D
:1022B00004A9281D00F028FD3A464146A81D06F055
:1022C0002CFEB81D81B2284600F042FD0090A91DE9
:1022D000C8190222694600F017FDB9F1000F01D0BC
:1022E000C9F800602046B1E7F8B506460F46144627
:1022F0001D4623460122394630460095FFF79BFFD5
:10230000F8BD70B505460C46ADB1A4B1204606F047
:1023100063FD064676B122462946304606F0FDFDAD
:102320002346022201213046FFF773FB10B13046ED
:1023300006F081FD00BF70BD70472DE9F04F8FB0F2
:1023400007460C4601200E901FB9801E0FB0BDE855
:10235000F08F3D682878AA2802D04FF0FF30F5E7CB
:10236000A8780C287AD1E878802878D100200C90C1
:102370000D9000260B904FF001094FF0010A8346A3
:10238000AA208DF830000C208DF8320080208DF8C6
:10239000330001208DF83400A8790D2860D2DFE8E1
:1023A00000F05F0708165F245F5F5F385F3A4B00FD
:1023B00000BFA8798DF83600082006F00DFD06460E
:1023C00016B94FF0000950E008200B904DE008A826
:1023D00000F0A1FF4FF0000A0BAB0C2208A948F255
:1023E0000300FFF781FF06463FE000200A902CB172
:1023F000206918B12069804780B20A904FF0000A26
:102400000BAB02220AA948F20500FFF76DFF064652
:102410002BE000F080FB4FF0FF300A9000F086FFC9
:102420000A904FF0000A0BAB04220AA948F20B00F5
:10243000FFF75AFF064618E00FF2DC184FF0000ACB
:10244000404606F04BFD401C0BAB024641460A904D
:1024500048F20C00FFF748FF064606E030E0BDE01A
:102460004FF0000900200E9000BF00BFB9F1000F2F
:1024700020D0FEB1BAF1000F06D00CA8FFF7C9FEBC
:102480000C9830600D9870601CB9304606F0D3FC93
:1024900010E0606918B9304606F0CDFC0AE0D4F8C7
:1024A00014C00222012130460B9BE04710B1304698
:1024B00006F0C1FCBBF1000F01D000F02CFB8DE059
:1024C000A87804287ED100200D9080460E9002222C
:1024D000691D0DA800F018FC05F108060D98801E76
:1024E0000D9075E04FF0000900200C904FF0010AAC
:1024F0000B900A900990022231460BA800F004FCD0
:102500000222B11C0AA800F0FFFB0222311D09A81B
:1025100000F0FAFBBDF82C00A0F500400A3858BBCB
:1025200006F1060B01A800F0F6FE4FF0FF3000F0B8
:10253000FDFE0090012301A904A8009A00F01CFFF1
:102540001022594604A806F09DFC38B900200890D6
:102550000022012104A800F035FF02E04FF0FF3017
:1025600008900CAB042208A948F20A00FFF7BCFE51
:10257000814601200E9000E000BF00BFBAF1000FBD
:1025800018D0B9F1000F15D01CB9484606F053FC1D
:1025900010E0606918B9484606F04DFC0AE0D4F82E
:1025A00014C00222012148460C9BE04710B1484666
:1025B00006F041FCBDF82800BDF824104843801DFA
:1025C000804400E008E005F1080000EB080600BFC9
:1025D0000D98804586D301E000200E900E9808B13A
:1025E0000020B3E64FF0FF30B0E601460020704710
:1025F00000200E49087001200D49087000200D4987
:1026000008700D4908700D49087001200C490870C8
:1026100070470000A800002059415F4E43505F53AF
:102620004D505F31373038313500000084000020D4
:102630008500002014000020860000208700002074
:102640008900002070477047704701460022012032
:1026500003E00B5C1344DAB2401C0628F9DB0A5491
:1026600070472DE9F0410546002624E005F10800F9
:1026700000EB8607B878EE2800D11BE097F80080C1
:10268000F74C0020206060602081AA202070F5486F
:10269000007860700720A070B878012800D1207100
:1026A00084F805802046FFF7B4FD08212046FFF797
:1026B00028FE00BF761C6868B042D7D80120BDE86C
:1026C000F0817FB50446E848007810B9002004B0D6
:1026D00070BDE34D0020286068602881AA20287022
:1026E000E048007868700720A870207AE870A07A27
:1026F0002871207B6871A07BA871DC48007818B134
:10270000287940F0400028712846FFF782FD082113
:102710002846FFF7F6FDD648007808B90120D6E72D
:10272000D448007802281ED1FF208DF80800CD483B
:102730000078401CC0B28DF8090000208DF80A0016
:10274000207A4006000E8DF80B00A07A8DF80C0060
:10275000207B8DF80D0002A8FFF777FF072102A864
:10276000FFF7EAFD1FE1207A4006020E02F07E022A
:10277000BC4800788130C0B28DF80000BE480078B7
:1027800060B902F01E0018B10120BB49087005E0D5
:1027900002F0600010B10220B7490870B648007816
:1027A000012828D1B548007850B302F01E0038BB8C
:1027B00001208DF8010006208DF8020001208DF81F
:1027C000030000208DF804008DF8050003208DF82B
:1027D00006008DF80700FF208DF8080009216846E3
:1027E000FFF7AAFD0020A549087002F0400018B1CB
:1027F0000220A149087060E000209F4908705CE059
:1028000001208DF8010006208DF8020001208DF8CE
:10281000030002F00600D8B16189C1EBC10303EBEC
:1028200001103F21B0FBF1F01821B0FBF1F301FBE7
:102830001300401CC1B28DF8041002F0040119B15C
:1028400001218DF8061002E002218DF8061005E046
:1028500000208DF8040003208DF8060002F0180017
:10286000D8B1A18901EB410303EB01103F21B0FB7B
:10287000F1F01421B0FBF1F301FB1300401CC1B2D5
:102880008DF8051002F0080119B101218DF807102B
:1028900002E002218DF8071005E000208DF8050008
:1028A00003208DF80700FF208DF8080009216846F5
:1028B000FFF742FD0120714908706F480078022837
:1028C0006CD16F480078D8B102F06000C0B9012027
:1028D0008DF8010004208DF8020007208DF8030018
:1028E00000208DF80400FF208DF8050006216846C1
:1028F000FFF722FD0020624908705F4908704DE033
:1029000002F04000402824D1E08900EB80030F2032
:10291000B3FBF0F30620B3FBF0F100FB11339B1C7B
:1029200001208DF8010004208DF8020007208DF8A9
:10293000030003F13000C0B28DF80400FF208DF8D1
:10294000050006216846FFF7F7FC01204C49087096
:1029500024E0E08900EB80030F20B3FBF0F30620B6
:10296000B3FBF0F100FB11339B1C01208DF801003B
:1029700004208DF8020007208DF8030003F12000E9
:10298000C0B28DF80400FF208DF8050006216846CE
:10299000FFF7D2FC01203A49087000BF12B90020AD
:1029A0003549087000BF012091E670B505462C4CF2
:1029B0000CB9002070BD0020206060602081AA203A
:1029C00020702848007860700720A0708020E07098
:1029D000207940F080002071287A60712046FFF74E
:1029E00018FC08212046FFF78CFC0120E2E770B5B7
:1029F00005461B4C0CB9002070BD002020606060B3
:102A00002081AA2020701748007860700720A070ED
:102A10002E8916B1012E0ED106E04920E0702079F2
:102A200040F08000207108E04920E070207940F0FB
:102A30009000207101E00020DEE700BF287B60717C
:102A40002046FFF7E6FB08212046FFF75AFC01204D
:102A5000D2E770B50546024CA4B9002070BD000055
:102A6000100C002084000020890000208800002035
:102A7000850000208A000020A2000020A100002084
:102A8000A00000200020206060602081AA2020702B
:102A90002748007860700620A0708020E070287AB7
:102AA0006071A0712046FFF7B4FB08212046FFF7B4
:102AB00028FC0120D2E770B505462C68207805284F
:102AC00001DB002070BD20781A4951F8200030B198
:102AD00020780A4652F8201020468847F2E7002066
:102AE000F0E730B502460AB9012030BD1168CB7855
:102AF000887908B9012000E0002005460879041112
:102B0000087900F00F0008718878062801D10120AB
:102B1000EBE70120E9E70848006800F4E0600749B6
:102B20000843001D04490860BFF34F8F00BFFEE754
:102B3000840000208C0000200CED00E00000FA056D
:102B400000BFFEE70246914201D3881A7047C2F1E6
:102B5000FF300844FAE710B5FEF7A8FC00F058FF74
:102B60001148007800F00F000F2817D10F480078A7
:102B700000F0030414B9FDF782FE07E0012C05D034
:102B8000022C02D1FEF753F900E000BFFDF78BFEE7
:102B900006480078401C0549087000BF02480068DC
:102BA000401C0149086010BDA4000020AC000020BA
:102BB00010B50121080702F0AEFF01217D2002F0CF
:102BC0009DFF10BD10B50121474802F046FD10BD24
:102BD00030B5464800684FF47A72B0FBF2F1B1F1BB
:102BE000807F00D31DE021F07F40401E4FF0E022A7
:102BF000506150170F22002807DA13071D0E3C4BB7
:102C000000F00F04241F1D5503E013071C0E394B61
:102C10001C5400BF00204FF0E0229061072010619B
:102C200000BF30BD10B586B004460121880402F013
:102C300072FF0021304803F0A2FF02A803F07CFFDE
:102C4000029402A92C4803F00EFF01212A4803F048
:102C500096FF4FF48060ADF8040003208DF8060065
:102C600018208DF8070001A9244802F025FC4FF434
:102C70000060ADF8040004208DF8070001A91F488A
:102C800002F01AFC06B010BD10B586B00446012152
:102C9000480402F040FF0021194803F070FF02A829
:102CA00003F04AFF029402A9154803F0DCFE01215B
:102CB000134803F064FF0420ADF8040003208DF8EE
:102CC000060018208DF8070001A90E4802F0F4FB59
:102CD0000820ADF8040004208DF8070001A9094878
:102CE00002F0EAFB06B010BD000230000000002038
:102CF00018ED00E000E400E000480040000C014056
:102D0000004400400008014010B50346002004E0E4
:102D1000141A641E0C5D1C54401C9042F8D310BD64
:102D200030B502460B464FF0FF3002B103B930BD5B
:102D3000002108E0C4B2555C6C40734D55F8244046
:102D400084EA1020491C9942F4D3C04300BFEEE747
:102D500070B502460C46FF25FF2312B94FF6FF70EF
:102D600070BD09E012F8010B80EA03016748405C7E
:102D700080EA05036648455C201EA4F10106B4B252
:102D8000F0D143EA0520EBE72DE9F04F03460C466E
:102D9000944600221D680026DFF87891012C57DD4B
:102DA000601E53F82020342090FBF4F000F1060858
:102DB00046E04E44C6F3810700211FE0481C53F84B
:102DC0002050500980EA85004FEAD50A8AEA021AA3
:102DD000504486EA050A01F0030B8BEA070B5CF806
:102DE0002BB08BEA020BDA4480EA0A0053F821A0E8
:102DF000504443F8210053F82120491C601E8842AA
:102E0000DCDC1D68500980EA85004FEAD50A8AEAB1
:102E1000021A824486EA050001F0030B8BEA070BD5
:102E20005CF82BB08BEA020B58448AEA000A601E59
:102E300053F820008244601E43F820A053F820205D
:102E4000B8F10000A8F10108B3DC0020BDE8F08F64
:102E5000B4F1FF3F56DA6442601E53F8202034205C
:102E600090FBF4F000F1060808FB09F646E0C6F313
:102E70008107611E20E0481E53F82020500980EA97
:102E800085004FEAD50A8AEA021A504486EA050A02
:102E900001F0030B8BEA070B5CF82BB08BEA020BFB
:102EA000DA4480EA0A0053F821A0AAEB000043F8B4
:102EB000210053F82150491E0029DCDC601E53F824
:102EC0002020500980EA85004FEAD50A8AEA021AD2
:102ED000504486EA050A01F0030B8BEA070B5CF805
:102EE0002BB08BEA020BDA4480EA0A00D3F800A088
:102EF000AAEB000018601D68A6EB0906002EB6D1EB
:102F00000020A3E70120A1E7BC940008BC980008BA
:102F1000BC990008B979379E2DE9F04707460C4661
:102F2000164698464FF0000917B10CB1002E03DA8F
:102F30004FF0FF30BDE8F087FDF74AF9814606EB18
:102F40004600C100204606F089F81421384606F0F4
:102F500085F8002510E005EB450004EBC000A0F863
:102F60000C8005EB450004EBC000183005EB450173
:102F700004EBC10108616D1C701EA842EBDC00204F
:102F800005EB450104EBC10108617E603C604846E9
:102F9000FDF722F90020CDE770B504460026002594
:102FA0000CB9002070BDFDF713F90646206828B162
:102FB0002568286920600020686128613046FDF797
:102FC0000BF92846EEE72DE9F04106460C46174678
:102FD00006B11CB94FF0FF30BDE8F0814FF000089A
:102FE00017B106F10C0001E006F110000546FDF7EF
:102FF000EFF88046286818B92C606461246109E004
:103000002868206128684069046128684069606117
:10301000286844614046FDF7DFF80020DCE72DE931
:10302000F04105460F464FF00008002615B9002074
:10303000BDE8F08117B105F10C0001E005F11000C9
:103040000446FDF7C5F88046206808B9002618E058
:103050002668206800692168884202D1002020602B
:103060000CE02068406921680969486120680069AE
:10307000216849690861206800692060002070614A
:1030800030614046FDF7A8F83046D1E770B50446F8
:103090000D4604B115B94FF0FF3070BD0026FDF7A5
:1030A00097F806462068286125603046FDF794F8B9
:1030B0000020F2E72DE9F04104460D4616460027B0
:1030C00004B11DB94FF0FF30BDE8F081FDF780F885
:1030D00007461821204605F0C1FF25607008A06052
:1030E000A068284460603846FDF776F80020EBE7DA
:1030F0002DE9F04704460F4615464FF00008C1463B
:1031000004B11FB94FF0FF30BDE8F087FDF760F85C
:1031100080466169A068461AB54202D94FF0FF396E
:1031200029E0E0682844A16888420FD9D4E9020167
:10313000461AE268216888183246394605F0EDFEE5
:10314000AA1BB919206805F0E8FE06E0E2682168CC
:1031500088182A46394605F0E0FEE0682844E06019
:10316000D4E90210B0FBF1F201FB1200E0606069EB
:103170002844606100BF4046FDF72EF84846C3E78B
:103180002DE9F04104460D46002714B90020BDE8A2
:10319000F081606908B90020F9E7FDF719F80746E2
:1031A000D4E904010844A168884211D92169A068C2
:1031B000461A23692268D1183246606805F0ADFED0
:1031C00063699A1BD4E90013981905F0A6FE06E07E
:1031D0002669236899196269606805F09EFED4E942
:1031E000040108442061A1682069B0FBF1F201FBF1
:1031F000120020610DB160692860002060613846CE
:10320000FCF7EAFF6068C2E72DE9F04106460427B3
:1032100001F033FE02F09DF804466EB1FE4961EA0A
:1032200004050846A043884217D001F0F0FE284666
:1032300001F0ADFF00F00BFBF7482043C543F64912
:10324000C94344EA0100401C38B101F0E0FE15B169
:10325000284601F09CFF00F0FAFA01F01AFEBDE8E2
:10326000F0812DE9F74F044690460426DDF804B0BE
:1032700028F00300404502D0701FBDE8FE8FA40A6D
:10328000A40204EB080901F0F8FD08F2FF304FEA50
:10329000902A352002F08CF8002707E04FF4806177
:1032A00001FB074001F02EFE06467F1C574501D268
:1032B000042EF3D0042E00D026E02546002708E097
:1032C00038467F1C5BF82010284601F0EBFE0646CE
:1032D0002D1D4D4501D2042EF2D0042E00D013E056
:1032E00025460426002708E02A6838467F1C5BF83C
:1032F0002000824200D002262D1D4D4501D2042E11
:10330000F2D101F0BAFD00BF042E02D04FF0FF3021
:10331000B3E70020B1E770B5044634B10C252A4666
:10332000BE49204605F03EFE00BF70BD2DE9F041CC
:1033300007460026BA4D002415E055F82400401C2D
:1033400078B9601C55F82000401C50B9A01C55F8F5
:103350002000401C28B9E01C55F82000401C00B992
:1033600003E0361D641CBE42E7D300BF3146AC48C3
:10337000FFF7D6FCBDE8F0812DE9FF4104460D467C
:1033800016461F4604B125B94FF0FF3004B0BDE822
:10339000F08195E807008DE8070003964FB19DE89E
:1033A0000F0084E80F006A4604212046FFF7ECFC7A
:1033B00006E09C4820606A4601212046FFF7E4FCB5
:1033C0000020E3E72DE9F0438BB006460F46154693
:1033D00026B94FF0FF300BB0BDE8F0834FF0040981
:1033E000E84696E80F0001AC0FC417B18E48009074
:1033F00009E08C4800900020CDE9065001AA022186
:1034000006A8FFF7C1FC00200890002405E058F84A
:103410002410089848400890641C082CF7D301F049
:103420002CFD342001F0C4FF804801F06BFD814683
:10343000E846002410E058F824107C4A02EB84008F
:1034400001F030FE8146B9F1040F04D001F021FDF6
:103450004FF0FF30BFE7641C0A2CECD301F019FDDC
:103460000020B8E72DE9F04387B0054688466F4C49
:103470006F480068401CB0B96E48FFF74CFF4FF032
:10348000FF30FFF753FF6A49086000230846694987
:1034900002686948FFF770FF0123654865490268C3
:1034A0006648FFF769FF6648007800287CD15D49CF
:1034B0002068884203D05C492068884267D1DFF8E1
:1034C0006C910027002603E059F826004740761C3F
:1034D000082EF9D3206AB84258D152492068884250
:1034E00038D1554800686168884224D1D4E9060182
:1034F000CDE90401221D6FF0010104A8FFF744FC8F
:103500000020DDE90421D2F10302884103D2042026
:103510004B4908700EE0484B0FCB8DE80F00049923
:103520004A1C4FF000016846FFF74CFF0120444958
:10353000087000BF2AE0404B0FCBCDE90423CDE952
:1035400002010422002102A8FFF73CFF04203C49AD
:1035500008701BE01022211D384805F093FC18B9B3
:1035600003203749087011E0334BD3E90121186873
:10357000DB68CDE90413CDE902020422002102A890
:10358000FFF720FF04202E49087000BF0CE02A4BF3
:103590000FCB02AE0FC60022114602A8FFF712FFA2
:1035A00001202749087000BF25480078012831D143
:1035B0002448016824480068FFF7C4FA44F62061F3
:1035C000884227D9D4E90601CDE90401201D0FC89E
:1035D0008DE80F001B4800681B490860221D6FF032
:1035E000010104A8FFF7D0FB0498421C4FF0000132
:1035F0006846FFF7E7FE0020DDE90421D2F103026F
:10360000884102D204200E49087015B141460220BB
:10361000A84700BF0A4819E0F8FFFF01E8F7FF1FBD
:103620000030000867452301EFCDAB890090010809
:10363000B80000201C0C0020380C0020280C0020B2
:10364000B0000020A4000020B4000020007804286E
:1036500021D11022211D844805F014FC28B9032033
:103660008249087007B0BDE8F08315B141460420D7
:10367000A8477F4801687F480068FFF763FA44F66F
:103680002061884207D97A4800687A49086015B1F4
:1036900041460520A84700BFE4E770B5044604256D
:1036A00001F0EBFB00BF342001F082FE01F0AFFC23
:1036B0000546042D00D005E021466F4801F043FD8A
:1036C000054600BF00BF01F0E4FB042D01D100203E
:1036D00070BD4FF0FF30FBE767480078704770B56A
:1036E00086B0142101A805F0B9FC002501AE142212
:1036F000624901A805F056FCBDF804004AF2A55144
:10370000884200D02BE0002404E036F8140028445E
:1037100085B2641C082CF8D3BDF81400A8421DD152
:10372000BDF8060056490880BDF8080055490880D4
:10373000BDF80A0054490880BDF80C0053490880C0
:10374000BDF80E0052490880BDF8100051490880AC
:10375000BDF812005049087006B070BD00BF0820C7
:103760004749088040F236604649088040F6F61026
:10377000454908802820454908804FF47D60444928
:10378000088030204349088004204349087000BF66
:10379000E2E72DE9F04186B04FF00408142101A8BA
:1037A00005F05CFC002501AE344F4AF2A550ADF89F
:1037B000040033480088ADF8060032480088ADF8B0
:1037C000080031480088ADF80A0030480088ADF89C
:1037D0000C002F480088ADF80E002E480088ADF888
:1037E00010002D480078ADF81200002404E036F8EF
:1037F0001400284485B2641C082CF8D3ADF814508A
:1038000001F03BFB342001F0D3FD1C4801F07AFBB2
:103810008046002410E036F81410384601F075FC9C
:103820008046B8F1040F05D001F033FB002006B04C
:10383000BDE8F081BF1C641C092CECD301F029FB0E
:103840000120F4E7024610880B88C01A704713481D
:10385000006800F4E06012490843001D0F49086049
:10386000BFF34F8F00BFFEE7280C0020B000002000
:10387000A4000020B400002004F8FF1F00F000089E
:1038800016000020180000201A0000201C00002054
:103890001E000020200000208A0000200CED00E027
:1038A0000000FA0500B587B004A802F08BFD684659
:1038B00002F091FD0121C80202F020F98220ADF84A
:1038C000140040F26710ADF810000020ADF81600AB
:1038D000ADF8120004A9814802F048FA01217F489E
:1038E00003F066F86020ADF800000120ADF802009A
:1038F0006420ADF806000220ADF80800694677485C
:1039000002F071FA0121754802F098FD07B000BD80
:1039100008B54FF48070ADF8000018208DF8030052
:1039200003208DF8020069466D4801F0C5FD08BD11
:1039300008B54FF48070ADF8000010208DF803003A
:1039400003208DF802006946654801F0B5FD0022AC
:103950004FF48071624801F060FE08BD10B5FFF7BA
:10396000A1FF10BD2DE9F04104465E49A068096839
:10397000FFF7E8F80546A088E17800FB01F6AE42C3
:1039800018D2607808B9012000E000206070074676
:1039900037B10121514802F045FDFFF7B9FF05E0BD
:1039A00000214E4802F03EFDFFF7C2FFE078401CC8
:1039B000E07000BFE078A17888420CDD0020207024
:1039C0000021464802F02EFDFFF7B2FF00204649D5
:1039D000087046490870BDE8F08170B504460D4690
:1039E0001646012020706806000EA0700120E070CD
:1039F000A6803C480068A060012060700121374823
:103A000002F010FDFFF784FF70BD37490870704762
:103A100010B53748007800B334480078012807D043
:103A2000022804D0032804D0042807D102E000BFF4
:103A300000BF00BF2E48FFF795FF0DE0002127488B
:103A400002F0F0FCFFF774FF0020294908702649B6
:103A500008702649087000BF3FE0244800782249DA
:103A60000978884239D020480078204908700846F3
:103A7000007801280DD0022804D0032810D0042893
:103A80001CD114E04FF4FA7203211948FFF7A5FF87
:103A900022E04FF47A7201211548FFF79EFF1BE0E8
:103AA0004FF4FA7201211248FFF797FF14E04FF428
:103AB000FA7202210E48FFF790FF0DE0002107483F
:103AC00002F0B0FCFFF734FF0020094908700649F6
:103AD00008700649087000BF00BF10BD002C0140EF
:103AE00000080140A4000020BD000020BC00002010
:103AF000480C002070B505460E46002409E015F874
:103B0000141035F81420100A0022FDF73BFC601C4D
:103B100084B2B442F3DB70BD10B586B00446F84AF7
:103B2000D2E900109268CDE904020391F44A0C3204
:103B3000D2E900109268CDE901020091FF2C04D077
:103B4000A4F11200EF4908700AE0EE480078401C2A
:103B5000EC49087008460078062801DB0020087050
:103B6000062103A8FFF7C6FF06216846FFF7C2FF3C
:103B700003AAE44B1B7812F81310E24B1B7832F8BF
:103B80001320100A0122FDF7FDFBDE4B1B781DF808
:103B90001310DC4B1B783DF81320100A0122FDF7AF
:103BA000F1FB06B010BD1CB5D549183103C9CDE9EC
:103BB000000103216846FFF79DFF1CBD10B50024DE
:103BC00012E0D14A12F8141032F81420100A002220
:103BD000FDF7D8FBCC4A12F8141032F81420100A62
:103BE0000022FDF7FAFB641C142CEAD310BD70B55B
:103BF00005460E46632D00DD70BDFFF7DFFF0A208E
:103C000095FBF0F4BCB15EB1BF4B04F10A0213F8AE
:103C1000121033F81220100A0122FDF7DEFB0AE031
:103C2000B94B04F10A0213F8121033F81220100AEB
:103C30000122FDF7A7FB0A2095FBF0F100FB1154D0
:103C40004EB1B14A12F8141032F81420100A0122B1
:103C5000FDF7C3FB08E0AC4A12F8141032F8142048
:103C6000100A0122FDF78EFB00BFC5E74FF0FF30C1
:103C7000A64908607047A5480078704710B5A34969
:103C80004868A3490968FEF75DFF41F28831884220
:103C900007D99E480068401C18B1FFF7E7FFFFF7FF
:103CA0008DFF10BD10B504460A2C00DB10BD9848EE
:103CB00000689649486008460068401C10B90846EC
:103CC000046010E09148006800EB800004EB4000C5
:103CD0008E490860084600686421B0FBF1F201FBE0
:103CE00012008A490860894908780121FFF77FFF9F
:103CF00000BFDBE7F0B585B005462C78A878022830
:103D000001D1012000E0002006468EB9282C0FD0FA
:103D1000292C0DD0112C0BD0422C09D0402C07D0CF
:103D20003F2C05D0052C03D03B2C01D005B0F0BDB5
:103D3000012C0ED17748007880F001020421062082
:103D4000FDF720FB7348007880F00100714908708E
:103D50006CE1022C0ED17048007880F00102042141
:103D60000720FDF70FFB6C48007880F001006A49DE
:103D700008705BE1072C15DB0A2C13DC604920314D
:103D800003C9CDE90301042103A8FFF7B3FEE21F35
:103D900003AB13F8121033F81220100A0122FDF7BA
:103DA000F1FA43E10C2C16DB0F2C14DC54492831BA
:103DB00003C9CDE90301042103A8FFF79BFEA4F189
:103DC0000C0203AB13F8121033F81220100A012270
:103DD000FDF7D8FA2AE1062C0ED15048007880F081
:103DE000010200210420FDF7CDFA4C48007880F054
:103DF00001004A49087019E10B2C0ED1484800789F
:103E000080F0010202210420FDF7BCFA444800784A
:103E100080F001004249087008E1122C05DB172CE4
:103E200003DC2046FFF778FE00E1182C16DB1D2C82
:103E300014DC334A303207CA02AB07C3062102A89A
:103E4000FFF758FEA4F1180202AB13F8121033F872
:103E50001220100A0122FDF795FAE7E02B2C15DB62
:103E60002C2C13DC26483C3000680490022104A866
:103E7000FFF740FEA4F12B0204AB13F8121033F845
:103E80001220100A0122FDF77DFACFE02D2C16DB5F
:103E90002F2C14DC1A49403103C9CDE90301032159
:103EA00003A8FFF727FEA4F12D0203AB13F81210AD
:103EB00033F81220100A0122FDF764FAB6E01E2C36
:103EC00016DB272C14DC14220D494831684605F016
:103ED00069F80A216846FFF70DFEA4F11E021DF8DD
:103EE00012103DF81220100A0122FDF74BFA9DE056
:103EF000282C17D1324601210620FDF743FA95E020
:103F0000009B0008E80000206C940008C00000201E
:103F1000A4000020E9000020EA000020EB000020BF
:103F2000EC000020292C05D1324603210620FDF7A4
:103F300029FA7BE0112C05D1324603210720FDF739
:103F400021FA73E03F2C0BD1324601210720FDF707
:103F500019FAFFF78BFEFFF731FEFFF724FE65E04D
:103F6000402C0BD1324600210620FDF70BFAFFF75B
:103F70007DFEFFF723FEFFF716FE57E03C2C19DB12
:103F80003E2C17DCFB4903C9CDE90301032103A83B
:103F9000FFF7B0FDA4F13C0203AB13F8121033F8A5
:103FA0001220100A0122FDF7EDF9FFF75FFEFFF77F
:103FB00005FE3BE0312C07DB3A2C05DCA4F1310196
:103FC000C8B2FFF76FFE31E0052C0BD13246042159
:103FD0000020FDF7D7F9FFF749FEFFF7EFFDFFF7E8
:103FE000E2FD23E03B2C10D1FFF745FE0746FFF72B
:103FF0003DFE00213846FFF7FAFDFFF7D4FD3246BB
:1040000004210220FDF7BEF910E0422C09D132460E
:1040100004210120FDF7B6F946B1FF20FFF77CFD32
:1040200004E0412C02D1FF20FFF776FD00BF7DE6C2
:104030002DE9FE4F06464FF00009002409E006F185
:10404000080101EB84008178EE2901D04FF00109CD
:10405000641C7068A042F2D8B9F1000F02D10020B0
:10406000BDE8FE8FC4480068052848D1C14A08321F
:1040700007CA8DE807004FF0030B4FF0000AD14646
:1040800000242DE006F1080000EB840898F8007089
:104090000FB1432F00DB22E0B848C55D05B91EE033
:1040A0000AF1010A98F80200012814D0E02D0CDB77
:1040B000E62D0ADC9DF80100A5F1E00101228A400D
:1040C0001043C0B28DF8010004E058460BF1010B1B
:1040D0000DF8005000BF4046FFF70CFE00BF641C07
:1040E0007068A042CED8BAF1000F07D00922694605
:1040F000812004F03FFE012004F0E4FA00BFB9F192
:10410000000F01D10020ABE70120A9E770B5002422
:1041100008E09B4830F81450E9B2280A0022FDF765
:1041200031F9641C182CF4D370BD70B50446772C9B
:1041300000DD7724FFF7EAFF052094FBF0F0C4B21E
:104140008F4830F81450E9B2280A0122FDF71AF915
:1041500070BDFEB505460027AC688A48006878B98E
:10416000192C04D201208749086001272AE05F2C1E
:1041700004D9022083490860012723E0002721E0B9
:1041800080480068012808D10A2C01D9282C02D9BE
:1041900004207C490860012714E07A48006802285E
:1041A00008D1502C01D96E2C02D903207549086022
:1041B000012707E0322C04D3462C02D2002071499B
:1041C0000860002727B36C480068052820D16D4897
:1041D0000068E8B1674A143207CA8DE80700032671
:1041E00068480068012803D130200DF8060006E079
:1041F00064480068022802D12F200DF80600092229
:104200006946812004F0B6FD012004F05BFA00BF8E
:10421000322C04D3462C02D200205A490860E0B266
:10422000FFF783FF0120FEBD57480068574908602B
:1042300001205749086070470EB555480068F0B135
:104240005148016851480068FEF77CFC51490968F3
:10425000884214D9474A203207CA8DE80700002057
:104260004B49086044480068052807D1092269467F
:10427000812004F07FFD012004F024FA00BF0EBD70
:104280002DE9FE4305460E4643A0006802903949D9
:104290002C3103C9CDE90001022D01DBBDE8FE830D
:1042A00002A8405D401EB04225DA3C48067C00244E
:1042B0001EE05DF8250030F8148046FA04F303F0A0
:1042C000010208F0FF014FEA1820FDF75BF85DF8E6
:1042D000251004F1080031F8108046FA04F303F0C9
:1042E000010208F0FF014FEA1820FDF74BF8641CAB
:1042F000082CDED3D2E70A2096FBF0F00A2190FBCF
:10430000F1F201FB1200C7B20A2096FBF0F100FBAC
:104310001160C6B2002F17DD2048C75D002410E0F1
:104320005DF8251004F1080031F8108047FA04F315
:1043300003F0010208F0FF014FEA1820FDF722F810
:10434000641C082CECD311E000240DE05DF825106E
:1043500004F1080031F8108008F0FF014FEA18203E
:104360000022FDF70FF8641C082CEFD30B48865D84
:10437000002424E05C9B000814020020BC9A000882
:1043800088930008F0000020A4000020CC0000204A
:10439000C8000020D0000020404000000894000821
:1043A0005DF8250030F8148046FA04F303F00102AA
:1043B00008F0FF014FEA1820FCF7E4FF641C082C0A
:1043C000EED300BF6AE7FEB504466D4A07CA8DE822
:1043D00007000325268916B1012E14D109E0608952
:1043E00018B14A200DF8050002E049200DF805003B
:1043F0000BE0608918B14E200DF8050002E04B205B
:104400000DF8050001E00020FEBD00BF217BF0B2E9
:10441000FFF736FF5B480068052809D10922694685
:10442000812004F0A7FC012004F04CF9FFF7FCFE0A
:104430000120E9E72DE9F04387B0074652A2D2E90F
:1044400000109268CDE90502049100250026387A13
:104450004006040EFFF70AFCFFF7B0FBFFF7A3FBD3
:1044600004F00C000C2801D105252AE004F014000A
:10447000142801D1062524E004F00A000A2801D1FD
:1044800007251EE004F01200122801D1082518E0CB
:1044900004F00800082801D1012512E004F0100002
:1044A000102801D102250CE004F00400042801D1F9
:1044B000032506E004F00200022801D1042500E0F3
:1044C000002504F02000202801D1092606E004F090
:1044D0004000402801D10A2600E00026284A0C327C
:1044E00007CA01AB07C34FF003084FF00009294882
:1044F000007885420BD035B104A8425D404608F1F2
:10450000010801A90A54234805704FF00109224807
:10451000007886420BD036B104A8825D404608F18F
:10452000010801A90A541C4806704FF00109B9F1AD
:10453000000F0BD013480068052807D1092201A9F4
:10454000812004F017FC012004F0BCF8012007B022
:10455000BDE8F08370B505462C682078052801DB9E
:10456000002070BD20780D4951F8200030B120782E
:104570000A4652F8201020468847F2E70020F0E76C
:10458000909B000814020020005251504F191B1A32
:104590001C555400F4000020F5000020D400002039
:1045A00031490143314A1160704770B50021002341
:1045B0000F22C47804B32D4C246804F4E064C4F5DD
:1045C000E064210AC1F10403CA40447804FA03F10B
:1045D0008478144021430901254C0678A1550478BC
:1045E00004F01F050124AC4005786D11AD0005F104
:1045F000E025C5F8004109E0047804F01F05012416
:10460000AC401C4D0678761145F8264070BD1A4A1C
:104610000A400243154B1B1F1A60704739B1134AF9
:10462000121D12680243114B1B1D1A6006E00F4A4F
:10463000121D126882430D4B1B1D1A60704704281F
:1046400008D14FF0E021096941F004014FF0E02268
:10465000116107E04FF0E021096921F004014FF0FA
:10466000E0221161704700000000FA050CED00E047
:1046700000E400E080E100E080FFFF1F10B5044689
:10468000FA48844208D10121401501F051FA002175
:10469000601501F04DFA17E0F548844208D1012178
:1046A000001501F045FA0021201501F041FA0BE058
:1046B000F048844208D10121C80301F039FA0021F1
:1046C0004FF4004001F034FA10BD30B5024600202E
:1046D00000235068E84C20400D790C6844EA05241A
:1046E000204350609068E54C2040D1E902542C43AF
:1046F0004D7944EA450420439060D06A20F470006C
:104700000C7C641EE4B2234340EA0350D06230BD07
:1047100000210160017141718160C160012101745A
:10472000704721B1826842F00102826003E0826832
:1047300022F001028260704721B1826842F48072E7
:10474000826003E0826822F480728260704710B554
:104750000023CBB21AB144681C43446002E04468B1
:104760009C43446010BD816841F00801816070473E
:10477000014600208A6802F008020AB1012000E028
:1047800000207047816841F0040181607047014654
:1047900000208A6802F004020AB1012000E0002033
:1047A000704721B1826842F4A002826003E082680F
:1047B00022F4A00282607047014600208A6802F459
:1047C00080020AB1012000E00020704710B50A46BF
:1047D00000210023416821F46041531E41EA433126
:1047E000416010BD21B1426842F40062426003E0C2
:1047F000426822F4006242607047F0B504460D46FC
:1048000000200021092D11DDE068A5F10A0606EB64
:104810004607072606FA07F18843A5F10A0606EBC4
:10482000460603FA06F10843E0600CE0206905EB58
:104830004507072606FA07F1884305EB450603FA04
:1048400006F108432061072A0FDA606B561E06EB5B
:1048500086071F2606FA07F18843561E06EB8606D2
:1048600005FA06F10843606322E00D2A0FDA206B97
:10487000D61F06EB86071F2606FA07F18843D61FC8
:1048800006EB860605FA06F10843206310E0E06AAD
:10489000A2F10D0606EB86071F2606FA07F18843EC
:1048A000A2F10D0606EB860605FA06F10843E06262
:1048B000F0BD21B1826842F48012826003E0826818
:1048C00022F48012826070470146C86C80B2704743
:1048D00066484C300068704721B1426842F48062FB
:1048E000426003E0426822F480624260704721B176
:1048F000426842F48052426003E0426822F48052EF
:10490000426070470A460021816821F4E04111436A
:104910008160704721B1826842F40042826003E006
:10492000826822F400428260704721B1826842F4BA
:104930000212826003E0826822F4021282607047F1
:10494000014600208A6802F400120AB1012000E04A
:1049500000207047F0B504461546002000220026CE
:10496000092911DDE068A1F10A0707EB470C0727C9
:1049700007FA0CF29043A1F10A0707EB470703FA85
:1049800007F21043E0600CE0206901EB410C0727BF
:1049900007FA0CF2904301EB410703FA07F21043C8
:1049A0002061A06BC0F30156EF1C06F1010CA7EBD0
:1049B0000C0707EB870C1F2707FA0CF29043EF1C3C
:1049C00006F1010CA7EB0C0707EB870701FA07F2CA
:1049D0001043A063F0BD10B50A4600210023816B8F
:1049E00021F44011531E41EA0351816310BD08B503
:1049F000002300930090009B0B440093009B1A60DF
:104A000008BD08B5024600200090009201F1280080
:104A1000009B184400900098006880B208BD0A46C8
:104A200000214168164B19401143416070474162B3
:104A3000826270470A460021416821F01F0111433C
:104A40004160704740B109490831096841F40001EB
:104A5000064A0832116007E004490831096821F468
:104A60000001024A08321160704700000024014032
:104A700000280140003C0140FFFEF0FFFDF7F1FF80
:104A8000FFFD3FFF0246002013680B400BB10120E1
:104A900000E000207047CA430260704770B50246CC
:104AA0000020002300240B125568CEB205EA06044C
:104AB00015681D4015B10CB1012000E0002070BD4B
:104AC00000220A12D34303607047000001684FF6CA
:104AD000FE72114001600021016041608160C1608F
:104AE0008D49884208D18C490839496841F00F0145
:104AF000894A083A51608AE087491431884208D1CE
:104B000085490839496841F0F001834A083A516003
:104B10007DE081492831884208D17F4908394968B8
:104B200041F470617C4A083A516070E07A493C3146
:104B3000884208D178490839496841F47041764A79
:104B4000083A516063E074495031884208D1724993
:104B50000839496841F470216F4A083A516056E0BB
:104B60006D496431884208D16B490839496841F47C
:104B70007001694A083A516049E0674978318842D2
:104B800008D165490839496841F07061624A083ABC
:104B900051603CE06149884206D1011F096841F03B
:104BA0000F01021F116032E05C491431884208D1C4
:104BB0005A49091F096841F0F001584A121F116053
:104BC00025E056492831884208D15449091F09680F
:104BD00041F47061514A121F116018E04F493C3195
:104BE000884208D14D49091F096841F470414B4A78
:104BF000121F11600BE049495031884207D14749E3
:104C0000091F096841F47021444A121F116070475E
:104C100010B50022026847F6F0739A430C6A8B685D
:104C200023430C6923434C6923438C692343CC6998
:104C300023434C6A23438C6A23431A430260CB68A4
:104C400043600B6883604B68C36010BD0021016046
:104C500041608160C160016141618161C161016246
:104C600041628162704721B1026842F00102026034
:104C700004E002684FF6FE731A40026070471AB1F2
:104C800003680B43036002E003688B4303607047D3
:104C9000416070470146486880B270470146002075
:104CA000002201F080531BB11C4B083B1A6802E044
:104CB000194B083B1A6802EA01030BB1012000E01E
:104CC0000020704700F0805119B11449091F086095
:104CD00002E011490839486070470146002000226F
:104CE00001F080531BB10D4B083B1A6802E00A4BE0
:104CF000083B1A6802EA01030BB1012000E0002022
:104D0000704700F0805119B10449091F086002E0A2
:104D10000149083948607047080002400804024011
:104D2000002044490860091D0860091D0860091D2C
:104D3000086041483F4914310860704700213D49EF
:104D40008279002A3AD00A46126803689A430B46D1
:104D50001A600A1D126803689A430B1D1A600279D3
:104D600011440A6803681A430A60324A083212681A
:104D700003689A432F4B08331A601A1D12680368A0
:104D80009A432C4B0C331A604279102A0ED11A1F09
:104D9000126803681A43274B08331A601A1D1268F9
:104DA00003681A43234B0C331A600DE02149427902
:104DB00011440A6803681A430A6005E00279114445
:104DC0000A6803689A430A60704700210160017114
:104DD0000C21417100218171704716491031096819
:104DE0000143144A10321160704701460020114AF5
:104DF000143212680A400AB1012000E00020704716
:104E00000C49143108607047014600200022094B0C
:104E10001B6803EA0102074B14331B680B4013B1F4
:104E20000AB1012000E000207047024914310860F7
:104E30007047000000040140FFFF0F000146002002
:104E4000FE4A106800F03800084310607047FB49C4
:104E5000096821F00801F94A116011460968014307
:104E600011607047F549096821F01001F34A11609B
:104E700011460968014311607047F148EF494860E5
:104E8000F04848607047EE48EC494860ED4848609B
:104E90007047EA48006940F08000E84908617047BF
:104EA000E648006940F08000E4490861704704204A
:104EB000E249C96801F0010109B101200EE0DF49B2
:104EC000C96801F0040109B1022007E0DB49C968A3
:104ED00001F0100109B1032000E00420704700B583
:104EE00002460423FFF7E3FF034603E0FFF7DFFF7B
:104EF0000346521E012B01D1002AF7D102B9052326
:104F0000184600BD30B5044604254FF43020FFF7A5
:104F1000E6FF0546042D17D1C848006940F002009D
:104F2000C649086108464461006940F040000861D4
:104F30004FF43020FFF7D3FF0546C048006941F623
:104F4000FD710840BD490861284630BD10B50424F4
:104F50004FF43020FFF7C3FF0446042C16D1B748A6
:104F6000006940F00400B54908610846006940F056
:104F7000400008614FF43020FFF7B1FF0446AF480E
:104F8000006941F6FB710840AC490861204610BD3C
:104F900000B502460423FFF78AFF034603E0FFF74C
:104FA00086FF0346521E012B01D1002AF7D102B918
:104FB0000523184600BD10B504244FF43020FFF738
:104FC000E7FF0446042C16D19C48006940F0040019
:104FD0009A4908610846006940F0400008614FF4B2
:104FE0003020FFF7D5FF04469448006941F6FB7175
:104FF000084092490861204610BD00208F49C969C8
:1050000001F0020109B1012000E00020704730B535
:10501000A5250424FFF7F1FF00B100254FF430204F
:10502000FFF75DFF0446042C3AD185488349886028
:10503000844888600846006940F0200008610846FE
:10504000006940F0400008614FF43020FFF747FF4F
:105050000446042C1BD17948006941F6DF710840F1
:10506000764908610846006940F0100008617648FA
:105070000580E002FFF733FF0446052C10D06F488F
:10508000006941F6EF7108406C49086108E0052CA1
:1050900006D06A48006941F6EF7108406749086127
:1050A000204630BD78B506460C4604250020009009
:1050B000E802FFF714FF0546042D24D15F4800697C
:1050C00040F001005D4908613480E802FFF707FF06
:1050D0000546042D10D1B01C0090200C00990880CA
:1050E000E802FFF7FCFE05465448006941F6FE71F0
:1050F00008405249086106E05048006941F6FE71D7
:1051000008404E490861284678BD70B504460D46F2
:105110000426F002FFF7E3FE0646042E11D14748AD
:10512000006940F00100454908612580F002FFF761
:10513000D6FE06464148006941F6FE7108403F49E7
:105140000861304670BD70B505460E460424E00285
:10515000FFF7C5FE0446042C17D13948374988604B
:10516000384888600846006940F0100008612E80C9
:10517000E002FFF7B4FE0446052C06D02F48006974
:1051800041F6EF7108402D490861204670BD2DE9B8
:10519000F04304464FF6FF763746B046B146042545
:1051A000E443E6B2C4F30727C4F307484FEA14699F
:1051B000E802FFF794FE0546042D49D120481F4917
:1051C0008860204888600846006940F01000086147
:1051D000FF2E06D01C4808300680E802FFF77FFE4D
:1051E0000546042D08D1FF2F06D017480A30078046
:1051F000E802FFF774FE0546042D0AD1B8F1FF0F4F
:1052000007D011480C30A0F80080E802FFF767FED5
:105210000546042D0AD1B9F1FF0F07D00A480E3018
:10522000A0F80090E802FFF75AFE0546052D0FD0C2
:105230000248006941F6EF71084007E00020024093
:1052400023016745AB89EFCD00F8FF1F6649086170
:105250002846BDE8F08330B5054604244FF43020DD
:10526000FFF73DFE0446042C41D160485E4988604A
:105270005F4888600846006940F0200008610846E1
:10528000006940F0400008614FF43020FFF727FE2E
:105290000446042C22D15448006941F6DF710840CD
:1052A000514908610846006940F0100008611DB1CD
:1052B00000205049088002E0A5204E4908804FF4A4
:1052C0003020FFF70CFE0446052C10D0464800693C
:1052D00041F6EF7108404449086108E0052C06D00A
:1052E0004148006941F6DF7108403F4908612046A6
:1052F00030BDF0B505460E46174604243B483A49F2
:1053000088603B488860E002FFF7E9FD0446042C12
:1053100019D13548006940F010003349086147F061
:10532000F800304328433349891C0880E002FFF726
:10533000D6FD0446052C06D02B48006941F6EF71D6
:105340000840294908612046F0BD2748C069800807
:1053500070472548006A704700202349096801F01A
:10536000200109B1012000E00020704729B11E4A48
:10537000126902431C4B1A6104E01B4A1269824302
:10538000194B1A61704701460020012908D1164ABD
:10539000D26902F001020AB1012008E0002006E013
:1053A000114AD2680A400AB1012000E0002070478B
:1053B0000D49C860704704200B49C96801F001011C
:1053C00009B101200EE00849C96801F0040109B1E2
:1053D000022007E00449C96801F0100109B1032067
:1053E00000E00420704700000020024023016745D0
:1053F000AB89EFCD00F8FF1F10B50446CC488442BE
:1054000008D10121042000F093FB0021042000F0CA
:105410008FFB46E0C748844208D10121082000F0F4
:1054200087FB0021082000F083FB3AE0C248844259
:1054300008D10121102000F07BFB0021102000F09A
:1054400077FB2EE0BD48844208D10121202000F0E6
:105450006FFB0021202000F06BFB22E0B848844263
:1054600008D10121402000F063FB0021402000F022
:105470005FFB16E0B348844208D10121802000F090
:1054800057FB0021802000F053FB0AE0AE48844225
:1054900007D10121801500F04BFB0021A01500F081
:1054A00047FB10BD10B50121084600F041FB00216B
:1054B000012000F03DFB10BD2DE9F0410246002522
:1054C0000026002000230024002791F803C00CF0E0
:1054D0000F0591F803C00CF0100CBCF1000F03D0C5
:1054E00091F802C04CEA050591F800C0BCF1000F2C
:1054F00031D0146800202BE04FF0010C0CFA00F3BF
:10550000B1F800C00CEA03069E4220D183004FF0A0
:105510000F0C0CFA03F7BC4305FA03FC4CEA040435
:1055200091F803C0BCF1280F06D14FF0010C0CFA22
:1055300000FCC2F814C00AE091F803C0BCF1480FA7
:1055400005D14FF0010C0CFA00FCC2F810C0401C51
:105550000828D1D31460B1F800C0BCF1FF0F34DDCE
:10556000546800202EE000F1080C4FF0010808FA02
:105570000CF3B1F800C00CEA03069E4221D183006F
:105580004FF00F0C0CFA03F7BC4305FA03FC4CEA8E
:10559000040491F803C0BCF1280F05D100F1080CF8
:1055A00008FA0CF8C2F8148091F803C0BCF1480F57
:1055B00007D100F1080C4FF0010808FA0CF8C2F806
:1055C0001080401C0828CED35460BDE8F0814FF60F
:1055D000FF710180022181700421C1707047024671
:1055E000002093680B400BB1012000E000207047C1
:1055F0000146886880B2704702460020D3680B409D
:105600000BB1012000E0002070470146C86880B25D
:10561000704701617047416170470AB1016100E064
:1056200041617047C16070474FF480320A43826124
:105630008161826182698269704702460020434B22
:1056400018684FF68073184040EA021008433F4B39
:10565000186070473E49C8617047F0B50A4600239C
:1056600000240021002500F00046B6F1004F02D1D1
:10567000364EF16901E0354E7168C0F3034583B2DF
:1056800000F44016B6F5401F08D121F070612F4E8E
:10569000766826F070662D4F7E6012E000F480166A
:1056A000B6F5801F06D1032606FA05F4A14341F0A2
:1056B000706106E0460D360103FA06F6B14341F08B
:1056C000706122B1460D360103FA06F6314300F04F
:1056D0000046B6F1004F02D11C4EF16101E01B4EB5
:1056E0007160F0BD30B500228B071C0F0F2303FA49
:1056F00004F2164B08338C1053F824309343134CA8
:1057000008348D1044F8253023468C1053F824308B
:105710008C07240F00FA04F423430C4C08348D103A
:1057200044F8253030BD0A49DC310860704700007C
:1057300000080140000C014000100140001401402D
:1057400000180140001C0140002001400000014001
:105750000000204210B50121080700F0F6F90021F1
:105760004FF0805000F0F1F910BD2A4908627047EF
:1057700028490861704701460020274A106820F038
:10578000E0000843106070472249A031086070476C
:1057900010B502460020204B186820F0030010438B
:1057A00018601E4B1B6843F004031C4C2360012946
:1057B00001D130BF00E020BF184B1B6823F0040369
:1057C000164C236010BD1448006840F004001249D4
:1057D00008600846006840F0020008600F48006852
:1057E00040F004000D49086000BF00BF30BF7047A3
:1057F00001460020084A52680A400AB1012000E030
:10580000002070470449096841EA8001024A11609A
:105810007047000000000E420070004010ED00E0F4
:10582000DF48006840F00100DD4908600846406834
:10583000DC490840DA49486008460068DA4908400F
:10584000D74908600846006820F4802008600846B0
:10585000406820F4FE0048604FF41F0088607047E5
:10586000CF49096821F48031CD4A11601146096899
:1058700021F480211160B0F5803F03D0B0F5802F76
:105880000ED106E0C649096841F48031C44A11606E
:1058900007E0C349096841F4A021C14A116000E052
:1058A00000BF00BF704710B5014600220023002052
:1058B0004A11012A02D1BA4C236806E0022A02D119
:1058C000B74C236A01E0B64C636A01F01F02012461
:1058D00094401C400CB1012000E0002010BD38B500
:1058E000002000900024002500BF3120FFF7DBFFDF
:1058F00005460098401C00900098B0F5A06F01D0BC
:10590000002DF2D03120FFF7CEFF08B1012400E0D6
:105910000024204638BD01460020A14A106820F02E
:10592000F80040EAC10010607047A0490860704765
:10593000024600209A4B586820F47C1042EA01038A
:105940001843974B5860704798490866704701465E
:105950000020934A506820F00300084350607047CD
:105960008F48406800F00C007047014600208C4AC8
:10597000506820F0F0000843506070470146002056
:10598000874A506820F4E060084350607047014641
:105990000020834A506820F4605040EAC100506003
:1059A000704729B17E4A527A02437D4B5A7204E015
:1059B0007B4A527A82437A4B5A7270477B49D8317C
:1059C0000860704701460020754A506820F4404046
:1059D0000843506070470021714A20321170704AAC
:1059E00082F82010012802D004280AD104E0012105
:1059F0006B4A2032117005E00521694A203211708E
:105A000000E000BF00BF7047694908607047644903
:105A1000096A0143624A1162704765494439086066
:105A2000704730B500210022002400235C4D6D68D2
:105A300005F00C0121B1042905D0082923D105E086
:105A40005C4D056022E05B4D05601FE0544D6D68C4
:105A500005F47012524D6D6805F48034022505EB93
:105A600092421CB9544D554305600BE04C4D6D6896
:105A700005F400351DB1504D5543056002E04D4D14
:105A80005543056002E04B4D056000BF00BF444D2B
:105A90006D6805F0F0010909484D6B5C0568DD4053
:105AA00045603F4D6D6805F4E061090A434D6B5C4C
:105AB0004568DD4085603A4D6D6805F46051C90A5E
:105AC0003E4D6B5C4568DD40C560354D6D6805F445
:105AD0004041890B3A4D6B5CC568B5FBF3F5056138
